S00D00006C616262352E7372656351
S11300000C9438000C9459050C94C5050C943106D5
S11300100C949D060C9409070C9455000C94E00D67
S11300200C9455000C948E0D0C9475070C94E107F8
S11300300C944D080C94B9080C9425090C9491095E
S11300400C94FD090C94690A0C94D50A0C94410B88
S11300500C94AD0B0C94190C0C94850CB402630233
S11300606C0275027E02870290029902A202AB0220
S113007011241FBECFEFD4E0DEBFCDBF11E0A0E05E
S1130080B1E0E0E9F2E202C005900D92A830B107B8
S1130090D9F724E0A8E0B1E001C01D92AB35B20766
S11300A0E1F70E9437040C9446110C940000CF929F
S11300B0DF92EF92FF920F931F93CF93DF93FC0194
S11300C024853585233031050CF46EC0EC0115868A
S11300D014860284F385E02D8481882321F1AE8186
S11300E0BF8114968D919C911597892BE1F040E086
S11300F050E06BEE73E0CF010E94A60F0A851B85CA
S1130100CC24C394D12C0F2EFEEEEF2EF3E0FF2E61
S1130110F02D20E030E0A9016AE572E682E090E08B
S11301200E94950E26C08581882319F1AC81BD817A
S113013014968D919C911597892BD9F040E050E04D
S11301406EEE73E0CF010E94A60F0A851B85CC24B6
S1130150C394D12C0F2EFBEEEF2EF3E0FF2EF02DE7
S113016020E030E0A9016AE572E682E090E00E94B6
S1130170950E40E050E061EF73E08A859B850E9414
S1130180A60F0A851B85C12CD12C0F2EF1EFEF2E63
S1130190F3E0FF2EF02D20E030E0A9016AE572E6DD
S11301A082E090E00E94950EDF91CF911F910F9114
S11301B0FF90EF90DF90CF900895CF93DF93EC0101
S11301C0EC81FD8184819581892BE9F48885998569
S11301D0892BD9F540E050E06BEE73E08A859B856E
S11301E00E94A60F41E050E06EEE73E08A859B8585
S11301F00E94A60F40E050E061EF73E08A859B8582
S11302000E94A60F22C0EE81FF8184819581892BF3
S1130210E1F488859985892BC1F441E050E06BEEC7
S113022073E08A859B850E94A60F40E050E06EEE45
S113023073E08A859B850E94A60F40E050E061EF41
S113024073E08A859B850E94A60FDF91CF91089564
S1130250CF93DF93EC01EC81FD8160E070E0848159
S113026095810E94C50362E070E0888599850E94AB
S1130270C503EE81FF8164E070E0848195810E9472
S1130280C503DF91CF910895CF92DF92EF92FF9251
S11302900F931F93CF93DF93EC01EA85FB85848151
S11302A0882359F1AC81BD8114968D919C91159749
S11302B01816190614F5019715969C938E931497A6
S11302C088859985019699878887C12CD12C0F2E12
S11302D0FAECEF2EF1E0FF2EF02D8E0120E030E05D
S11302E0A9016AE572E682E090E00E94950E8C8591
S11302F09D8501969D878C8729C08581882331F14E
S1130300EE81FF818481958118161906FCF401970A
S11303109583848388859985019699878887C12CDC
S1130320D12C0F2EFAECEF2EF1E0FF2EF02D8E01E2
S113033020E030E0A9016AE572E682E090E00E94E4
S1130340950E8C859D8501969D878C87CE010E9494
S11303505700CE010E94DD00C12CD12C0F2EF4E4F5
S1130360EF2EF1E0FF2EF02D8E0120E030E0A90108
S113037062E17AE780E090E00E94950ECE010E944F
S11303802801DF91CF911F910F91FF90EF90DF90A3
S1130390CF900895FC0120853185215031093187A2
S11303A020870E9428010895CF92DF92EF92FF9256
S11303B00F931F93CF93DF93EC011E9915C0EC812B
S11303C0FD8104811581C12CD12C0F2EFBE8EF2E69
S11303D0F4E0FF2EF02D20E030E0A90160E070E0B1
S11303E0CB010E94950E57C01F9915C0EC81FD8169
S11303F006811781C12CD12C0F2EFBE8EF2EF4E0DF
S1130400FF2EF02D20E030E0A90160E070E0CB0188
S11304100E94950E40C01C993EC0EC81FD818285EE
S11304209385FC012581222389F040E050E06EEEA3
S113043073E00E94A60FEC81FD8141E050E06BEE79
S113044073E0828593850E94A60F25C0FC01248158
S1130450222389F041E050E06EEE73E00E94A60F83
S1130460EC81FD8140E050E06BEE73E08285938582
S11304700E94A60F10C041E050E06EEE73E00E94AF
S1130480A60FEC81FD8140E050E06BEE73E08285C5
S113049093850E94A60F8C819D810E942801DF9183
S11304A0CF911F910F91FF90EF90DF90CF9008951F
S11304B090E0FC01F097EA30F10508F065C1E25DD7
S11304C0FF4F0C94EB1020E030E041E050E0E1E01D
S11304D0F0E080E090E050C021E030E04EE050E0F9
S11304E0E1E0F0E081E090E047C021E030E04BE063
S11304F050E0E1E0F0E081E090E03EC020E030E058
S11305004BE050E0E5E0F0E080E090E035C021E031
S113051030E04BE050E0E4E0F0E081E090E02CC01B
S113052021E030E04FE050E0E4E0F0E081E090E0F2
S113053023C020E030E041E050E0E1E0F0E081E081
S113054090E01AC021E030E04FE050E0E5E0F0E058
S113055081E090E011C021E030E04BE050E0E5E0C4
S1130560F0E081E090E008C021E030E045E050E0B8
S1130570E5E0F0E081E090E06230710509F467C0E5
S11305803CF46115710579F06130710551F10895FC
S11305906430710509F4A5C00CF472C065307105AE
S11305A009F4BDC00895ACEEB0E06C91667F6C9325
S11305B06C91607F7C91862B872B8C93A1EFB0E0AC
S11305C08C91807FE82BEC93E6EFF0E08081807FD4
S11305D0482B4083EBEFF0E08081807F282B208341
S11305E00895ACEEB0E06C916F766C936C916F7083
S11305F07C9182959295907F9827807F9827862B6F
S1130600872B8C93A1EFB0E08C918F70E295F295DB
S1130610F07FFE27E07FFE27E82BEC93E6EFF0E087
S113062080818F7042955295507F5427407F542784
S1130630482B4083EBEFF0E080818F702295329558
S1130640307F3227207F3227282B20830895ADEE78
S1130650B0E06C91607F862B8C93A2EFB0E08C911C
S1130660807FE82BEC93E7EFF0E08081807F482BDC
S11306704083ECEFF0E08081807F282B2083089575
S1130680ADEEB0E06C916F7082959295907F982753
S1130690807F9827862B8C93A2EFB0E08C918F708B
S11306A0E295F295F07FFE27E07FFE27E82BEC939E
S11306B0E7EFF0E080818F7042955295507F542788
S11306C0407F5427482B4083ECEFF0E080818F700B
S11306D022953295307F3227207F3227282B2083A2
S11306E00895AEEEB0E06C91667F6C936C91607F80
S11306F07C91862B872B8C93A3EFB0E08C91807F29
S1130700E82BEC93E8EFF0E08081807F482B408376
S1130710EDEFF0E08081807F282B20830895AEEEFA
S1130720B0E06C916F766C936C916F707C91829554
S11307309295907F9827807F9827862B872B8C9380
S1130740A3EFB0E08C918F70E295F295F07FFE27D5
S1130750E07FFE27E82BEC93E8EFF0E080818F70D8
S113076042955295507F5427407F5427482B40830D
S1130770EDEFF0E080818F7022953295307F322743
S1130780207F3227282B20830895EF92FF920F9326
S11307901F93CF93DF937C01EB0164E670E00E942A
S11307A0D7100AE010E0B8010E94D710862FBE01CE
S11307B0805D0E9458022196C701B8010E94D7109B
S11307C0BE01805D0E945802DF91CF911F910F916D
S11307D0FF90EF900895FC0164830895FC01658304
S11307E00895FC0134818581F0E13F9FB00111241B
S11307F090E4899FA0011124462B91E03927E0E27F
S11308003E9F90011124242B9827F0E89F9FC0015C
S11308101124822B8093C600089586E38093E5001B
S113082087E08093E6008FE08093E70080EC80937C
S1130830E4009DE09093810098E99093C1009EE0CC
S11308409093C20091E09093C50092E69093C40007
S1130850109264009CE090936B0020ED20936C0058
S11308608CBB8DBB25B99EB914B815BE08950F93E2
S11308701F93CF93DF93CDB7DEB7A6970FB6F89447
S1130880DEBF0FBECDBF0E940D041A8219821C82E6
S11308901B8281E08D831E8218861F821A86198628
S11308A01C861B861E861D86188A1F861A8A198A2C
S11308B01C8A1B8A1E8A1D8ACE010796988F8F8BED
S11308C006969A8F898F1C8E1B8E0C979E8F8D8F08
S11308D018A21F8E1AA219A21CA21BA28E010D5EC1
S11308E01F4F1EA30DA342E064ED71E080960E94A9
S11308F0A11040E050E064E471E0C8010E94BB1024
S1130900A6960FB6F894DEBF0FBECDBFDF91CF9190
S11309101F910F910895FC01248135812F5F3F4F72
S1130920358324830895CF93DF9300D000D0CDB7CF
S1130930DEB78BEF91E02BED32E0FC0170979183F1
S11309408083409682179307C1F71092CC021092CD
S1130950CB02E6E3F1E083E591E09183808380E7D5
S113096091E0968F858FADE8B1E0B3AFA2AF1D9251
S11309701C92FA83E983E7E3F3E0FC83EB83898148
S11309809A8106960E9405118B819C81E981FA81E6
S1130990978B868B918F808F83E390E1948F838FE5
S11309A0158214827D96FA83E983EB81FC81E05AF7
S11309B0FF4FFC83EB8389819A818A5A9140F9F62F
S11309C0EEECF1E0118210821582148213821282FD
S11309D0E1E6F0E080E880831082109285001092B6
S11309E0840084E08093810081E080936F000F9005
S11309F00F900F900F90DF91CF910895CF93DF93D5
S1130A0000D0CDB7DEB79A8389838091000190919D
S1130A10010106960E940511892B59F489819A8156
S1130A20909301018093000161E070E006960E94BA
S1130A3025110F900F90DF91CF9108950F931F937D
S1130A40CF93DF93E0911001F0911101309761F1A0
S1130A508091040190910501009731F1C091020148
S1130A60D0910301AA81BB81109779F04681578107
S1130A706085718516960D911D912D913C91199764
S1130A80401B510B620B730B7AF4FC012081318102
S1130A903093050120930401D183C0839093030113
S1130AA0809302010E94FE04DF91CF911F910F9168
S1130AB008951F920F920FB60F9211242F933F9314
S1130AC04F935F936F937F938F939F93AF93BF9352
S1130AD0EF93FF9320910801309109014091840024
S1130AE050918500C901032E000CAA0BBB0BDC013D
S1130AF09927882760E070E0842B952BA62BB72BD1
S1130B0080930A0190930B01A0930C01B0930D0103
S1130B10B09B1BC04091840050918500C90101968F
S1130B20092E000CAA0BBB0BDC019927882760E077
S1130B3070E0842B952BA62BB72B80930A019093FE
S1130B400B01A0930C01B0930D01E091AA01F09167
S1130B50AB01309739F060E070E080911201909120
S1130B60130109950E941E05FF91EF91BF91AF916A
S1130B709F918F917F916F915F914F913F912F91B1
S1130B800F900FBE0F901F9018951F920F920FB6E3
S1130B900F9211242F933F934F935F936F937F93FF
S1130BA08F939F93AF93BF93EF93FF93209108018B
S1130BB0309109014091840050918500C901032EB0
S1130BC0000CAA0BBB0BDC019927882760E070E0BE
S1130BD0842B952BA62BB72B80930A0190930B01A2
S1130BE0A0930C01B0930D01B09B1BC040918400F5
S1130BF050918500C9010196092E000CAA0BBB0B6C
S1130C00DC019927882760E070E0842B952BA62BC4
S1130C10B72B80930A0190930B01A0930C01B0931E
S1130C200D01E091AC01F091AD01309739F061E034
S1130C3070E0809114019091150109950E941E05A0
S1130C40FF91EF91BF91AF919F918F917F916F91A0
S1130C505F914F913F912F910F900FBE0F901F9076
S1130C6018951F920F920FB60F9211242F933F9352
S1130C704F935F936F937F938F939F93AF93BF93A0
S1130C80EF93FF9320910801309109014091840072
S1130C9050918500C901032E000CAA0BBB0BDC018B
S1130CA09927882760E070E0842B952BA62BB72B1F
S1130CB080930A0190930B01A0930C01B0930D0152
S1130CC0B09B1BC04091840050918500C9010196DE
S1130CD0092E000CAA0BBB0BDC019927882760E0C6
S1130CE070E0842B952BA62BB72B80930A0190934D
S1130CF00B01A0930C01B0930D01E091AE01F091B2
S1130D00AF01309739F062E070E080911601909164
S1130D10170109950E941E05FF91EF91BF91AF91B4
S1130D209F918F917F916F915F914F913F912F91FF
S1130D300F900FBE0F901F9018951F920F920FB631
S1130D400F9211242F933F934F935F936F937F934D
S1130D508F939F93AF93BF93EF93FF9320910801D9
S1130D60309109014091840050918500C901032EFE
S1130D70000CAA0BBB0BDC019927882760E070E00C
S1130D80842B952BA62BB72B80930A0190930B01F0
S1130D90A0930C01B0930D01B09B1BC04091840043
S1130DA050918500C9010196092E000CAA0BBB0BBA
S1130DB0DC019927882760E070E0842B952BA62B13
S1130DC0B72B80930A0190930B01A0930C01B0936D
S1130DD00D01E091B001F091B101309739F063E079
S1130DE070E0809118019091190109950E941E05E7
S1130DF0FF91EF91BF91AF919F918F917F916F91EF
S1130E005F914F913F912F910F900FBE0F901F90C4
S1130E1018951F920F920FB60F9211242F933F93A0
S1130E204F935F936F937F938F939F93AF93BF93EE
S1130E30EF93FF93209108013091090140918400C0
S1130E4050918500C901032E000CAA0BBB0BDC01D9
S1130E509927882760E070E0842B952BA62BB72B6D
S1130E6080930A0190930B01A0930C01B0930D01A0
S1130E70B09B1BC04091840050918500C90101962C
S1130E80092E000CAA0BBB0BDC019927882760E014
S1130E9070E0842B952BA62BB72B80930A0190939B
S1130EA00B01A0930C01B0930D01E091B201F091FC
S1130EB0B301309739F064E070E080911A019091A9
S1130EC01B0109950E941E05FF91EF91BF91AF91FF
S1130ED09F918F917F916F915F914F913F912F914E
S1130EE00F900FBE0F901F9018951F920F920FB680
S1130EF00F9211242F933F934F935F936F937F939C
S1130F008F939F93AF93BF93EF93FF932091080127
S1130F10309109014091840050918500C901032E4C
S1130F20000CAA0BBB0BDC019927882760E070E05A
S1130F30842B952BA62BB72B80930A0190930B013E
S1130F40A0930C01B0930D01B09B1BC04091840091
S1130F5050918500C9010196092E000CAA0BBB0B08
S1130F60DC019927882760E070E0842B952BA62B61
S1130F70B72B80930A0190930B01A0930C01B093BB
S1130F800D01E091B401F091B501309739F065E0BD
S1130F9070E080911C0190911D0109950E941E052D
S1130FA0FF91EF91BF91AF919F918F917F916F913D
S1130FB05F914F913F912F910F900FBE0F901F9013
S1130FC018951F920F920FB60F9211242F933F93EF
S1130FD04F935F936F937F938F939F93AF93BF933D
S1130FE0EF93FF932091080130910901409184000F
S1130FF050918500C901032E000CAA0BBB0BDC0128
S11310009927882760E070E0842B952BA62BB72BBB
S113101080930A0190930B01A0930C01B0930D01EE
S1131020B09B1BC04091840050918500C90101967A
S1131030092E000CAA0BBB0BDC019927882760E062
S113104070E0842B952BA62BB72B80930A019093E9
S11310500B01A0930C01B0930D01E091B601F09146
S1131060B701309739F066E070E080911E019091ED
S11310701F0109950E941E05FF91EF91BF91AF9149
S11310809F918F917F916F915F914F913F912F919C
S11310900F900FBE0F901F9018951F920F920FB6CE
S11310A00F9211242F933F934F935F936F937F93EA
S11310B08F939F93AF93BF93EF93FF932091080176
S11310C0309109014091840050918500C901032E9B
S11310D0000CAA0BBB0BDC019927882760E070E0A9
S11310E0842B952BA62BB72B80930A0190930B018D
S11310F0A0930C01B0930D01B09B1BC040918400E0
S113110050918500C9010196092E000CAA0BBB0B56
S1131110DC019927882760E070E0842B952BA62BAF
S1131120B72B80930A0190930B01A0930C01B09309
S11311300D01E091B801F091B901309739F067E001
S113114070E0809120019091210109950E941E0573
S1131150FF91EF91BF91AF919F918F917F916F918B
S11311605F914F913F912F910F900FBE0F901F9061
S113117018951F920F920FB60F9211242F933F933D
S11311804F935F936F937F938F939F93AF93BF938B
S1131190EF93FF932091080130910901409184005D
S11311A050918500C901032E000CAA0BBB0BDC0176
S11311B09927882760E070E0842B952BA62BB72B0A
S11311C080930A0190930B01A0930C01B0930D013D
S11311D0B09B1BC04091840050918500C9010196C9
S11311E0092E000CAA0BBB0BDC019927882760E0B1
S11311F070E0842B952BA62BB72B80930A01909338
S11312000B01A0930C01B0930D01E091BA01F09190
S1131210BB01309739F068E070E080912201909131
S1131220230109950E941E05FF91EF91BF91AF9193
S11312309F918F917F916F915F914F913F912F91EA
S11312400F900FBE0F901F9018951F920F920FB61C
S11312500F9211242F933F934F935F936F937F9338
S11312608F939F93AF93BF93EF93FF9320910801C4
S1131270309109014091840050918500C901032EE9
S1131280000CAA0BBB0BDC019927882760E070E0F7
S1131290842B952BA62BB72B80930A0190930B01DB
S11312A0A0930C01B0930D01B09B1BC0409184002E
S11312B050918500C9010196092E000CAA0BBB0BA5
S11312C0DC019927882760E070E0842B952BA62BFE
S11312D0B72B80930A0190930B01A0930C01B09358
S11312E00D01E091BC01F091BD01309739F069E046
S11312F070E0809124019091250109950E941E05BA
S1131300FF91EF91BF91AF919F918F917F916F91D9
S11313105F914F913F912F910F900FBE0F901F90AF
S113132018951F920F920FB60F9211242F933F938B
S11313304F935F936F937F938F939F93AF93BF93D9
S1131340EF93FF93209108013091090140918400AB
S113135050918500C901032E000CAA0BBB0BDC01C4
S11313609927882760E070E0842B952BA62BB72B58
S113137080930A0190930B01A0930C01B0930D018B
S1131380B09B1BC04091840050918500C901019617
S1131390092E000CAA0BBB0BDC019927882760E0FF
S11313A070E0842B952BA62BB72B80930A01909386
S11313B00B01A0930C01B0930D01E091BE01F091DB
S11313C0BF01309739F06AE070E080912601909176
S11313D0270109950E941E05FF91EF91BF91AF91DE
S11313E09F918F917F916F915F914F913F912F9139
S11313F00F900FBE0F901F9018951F920F920FB66B
S11314000F9211242F933F934F935F936F937F9386
S11314108F939F93AF93BF93EF93FF932091080112
S1131420309109014091840050918500C901032E37
S1131430000CAA0BBB0BDC019927882760E070E045
S1131440842B952BA62BB72B80930A0190930B0129
S1131450A0930C01B0930D01B09B1BC0409184007C
S113146050918500C9010196092E000CAA0BBB0BF3
S1131470DC019927882760E070E0842B952BA62B4C
S1131480B72B80930A0190930B01A0930C01B093A6
S11314900D01E091C001F091C101309739F06BE08A
S11314A070E0809128019091290109950E941E0500
S11314B0FF91EF91BF91AF919F918F917F916F9128
S11314C05F914F913F912F910F900FBE0F901F90FE
S11314D018951F920F920FB60F9211242F933F93DA
S11314E04F935F936F937F938F939F93AF93BF9328
S11314F0EF93FF93209108013091090140918400FA
S113150050918500C901032E000CAA0BBB0BDC0112
S11315109927882760E070E0842B952BA62BB72BA6
S113152080930A0190930B01A0930C01B0930D01D9
S1131530B09B1BC04091840050918500C901019665
S1131540092E000CAA0BBB0BDC019927882760E04D
S113155070E0842B952BA62BB72B80930A019093D4
S11315600B01A0930C01B0930D01E091C201F09125
S1131570C301309739F06CE070E080912A019091BA
S11315802B0109950E941E05FF91EF91BF91AF9128
S11315909F918F917F916F915F914F913F912F9187
S11315A00F900FBE0F901F9018951F920F920FB6B9
S11315B00F9211242F933F934F935F936F937F93D5
S11315C08F939F93AF93BF93EF93FF932091080161
S11315D0309109014091840050918500C901032E86
S11315E0000CAA0BBB0BDC019927882760E070E094
S11315F0842B952BA62BB72B80930A0190930B0178
S1131600A0930C01B0930D01B09B1BC040918400CA
S113161050918500C9010196092E000CAA0BBB0B41
S1131620DC019927882760E070E0842B952BA62B9A
S1131630B72B80930A0190930B01A0930C01B093F4
S11316400D01E091C401F091C501309739F06DE0CE
S113165070E080912C0190912D0109950E941E0546
S1131660FF91EF91BF91AF919F918F917F916F9176
S11316705F914F913F912F910F900FBE0F901F904C
S113168018951F920F920FB60F9211242F933F9328
S11316904F935F936F937F938F939F93AF93BF9376
S11316A0EF93FF9320910801309109014091840048
S11316B050918500C901032E000CAA0BBB0BDC0161
S11316C09927882760E070E0842B952BA62BB72BF5
S11316D080930A0190930B01A0930C01B0930D0128
S11316E0B09B1BC04091840050918500C9010196B4
S11316F0092E000CAA0BBB0BDC019927882760E09C
S113170070E0842B952BA62BB72B80930A01909322
S11317100B01A0930C01B0930D01E091C601F0916F
S1131720C701309739F06EE070E080912E019091FE
S11317302F0109950E941E05FF91EF91BF91AF9172
S11317409F918F917F916F915F914F913F912F91D5
S11317500F900FBE0F901F9018951F920F920FB607
S11317600F9211242F933F934F935F936F937F9323
S11317708F939F93AF93BF93EF93FF9320910801AF
S1131780309109014091840050918500C901032ED4
S1131790000CAA0BBB0BDC019927882760E070E0E2
S11317A0842B952BA62BB72B80930A0190930B01C6
S11317B0A0930C01B0930D01B09B1BC04091840019
S11317C050918500C9010196092E000CAA0BBB0B90
S11317D0DC019927882760E070E0842B952BA62BE9
S11317E0B72B80930A0190930B01A0930C01B09343
S11317F00D01E091C801F091C901309739F06FE013
S113180070E0809130019091310109950E941E058C
S1131810FF91EF91BF91AF919F918F917F916F91C4
S11318205F914F913F912F910F900FBE0F901F909A
S113183018951F920F920FB60F9211242F933F9376
S11318404F935F936F937F938F939F93AF93BF93C4
S1131850EF93FF9320910801309109014091840096
S113186050918500C901032E000CAA0BBB0BDC01AF
S11318709927882760E070E0842B952BA62BB72B43
S113188080930A0190930B01A0930C01B0930D0176
S1131890B09B1BC04091840050918500C901019602
S11318A0092E000CAA0BBB0BDC019927882760E0EA
S11318B070E0842B952BA62BB72B80930A01909371
S11318C00B01A0930C01B0930D01E091CA01F091BA
S11318D0CB01309739F060E170E080913201909152
S11318E0330109950E941E05FF91EF91BF91AF91BD
S11318F09F918F917F916F915F914F913F912F9124
S11319000F900FBE0F901F9018951F920F920FB655
S11319100F9211242F933F934F935F936F937F9371
S11319208F939F93AF93BF93EF93FF9320910801FD
S1131930309109014091840050918500C901032E22
S1131940000CAA0BBB0BDC019927882760E070E030
S1131950842B952BA62BB72B80930A0190930B0114
S1131960A0930C01B0930D01B09B1BC04091840067
S113197050918500C9010196092E000CAA0BBB0BDE
S1131980DC019927882760E070E0842B952BA62B37
S1131990B72B80930A0190930B01A0930C01B09391
S11319A00D01E091CC01F091CD01309739F061E166
S11319B070E0809134019091350109950E941E05D3
S11319C0FF91EF91BF91AF919F918F917F916F9113
S11319D05F914F913F912F910F900FBE0F901F90E9
S11319E01895EF92FF920F931F93CF93DF937B0190
S11319F0EB01A881B981109761F1FC01068117817F
S1131A002085318516964D915D916D917C91199744
S1131A10041715072607370714F41BC0DF01ED91DF
S1131A20FC911197309749F0468157816085718503
S1131A3004171507260737078CF7EC01F983E883A9
S1131A40109721F4F7019183808307C08D939C93B1
S1131A5004C0EC01B983A883F5CFDF91CF911F9126
S1131A600F91FF90EF900895EF92FF920F931F93C1
S1131A70CF93DF937B01EB01A881B981109761F1CA
S1131A80FC01028113812481358112964D915D916F
S1131A906D917C911597041715072607370714F4E1
S1131AA01BC0DF01ED91FC911197309749F0428101
S1131AB053816481758104171507260737078CF74E
S1131AC0EC01F983E883109721F4F7019183808373
S1131AD007C08D939C9304C0EC01B983A883F5CF10
S1131AE0DF91CF911F910F91FF90EF900895DC014A
S1131AF0ED91FC911197309759F48FEF8093EC009E
S1131B008093ED008093EE0081E083BF8895FDCF44
S1131B10208131812D933C93CF0108951F920F9220
S1131B200FB60F9211242F933F934F935F936F93AC
S1131B307F938F939F93EF93FF93809108019091EC
S1131B40090101969093090180930801E0910E0127
S1131B50F0910F01309701F14281538164817581C5
S1131B6086179707C9F4CA01209184003091850033
S1131B70421B530B4130510529F48091840090910C
S1131B80850001969093890080938800EFE6F0E049
S1131B9080818260808305C0EFE6F0E080818D7FE4
S1131BA08083FF91EF919F918F917F916F915F91CE
S1131BB04F913F912F910F900FBE0F901F9018954A
S1131BC01F920F920FB60F921124CF92DF92EF92D1
S1131BD0FF922F933F934F935F936F937F938F93D2
S1131BE09F93AF93BF93EF93FF93C0900801D0905E
S1131BF009012091840030918500B0990FC00D2C0B
S1131C00000CEE08FF08D601992788276901E12C0A
S1131C10F12CC82AD92AEA2AFB2A15C0209184006B
S1131C20309185008FEFC81AD80A0D2C000CEE08ED
S1131C30FF08D601992788276901E12CF12CC82ACD
S1131C40D92AEA2AFB2AE0910E01F0910F0130977C
S1131C5009F442C082819381A481B5818C199D09C4
S1131C60AE09BF09181619061A061B06ECF18EE018
S1131C7091E00E94770D60E171E00E94F10CE09127
S1131C800E01F0910F01309739F182819381A48183
S1131C90B5818C199D09AE09BF09181619061A06D3
S1131CA01B062CF721C09C014091840050918500B3
S1131CB0841B950B019731F42091840030918500A9
S1131CC02F5F3F4F3093890020938800EFE6F0E0C8
S1131CD080818260808305C0EFE6F0E080818D7FA3
S1131CE080830E941E050CC082819381A481B581EA
S1131CF020910801309109012A173B0769F7D3CFD6
S1131D00FF91EF91BF91AF919F918F917F916F91CF
S1131D105F914F913F912F91FF90EF90DF90CF9083
S1131D200F900FBE0F901F9018953F924F925F92A5
S1131D306F927F928F929F92AF92BF92CF92DF92D7
S1131D40EF92FF920F931F93CF93DF932B013C01EC
S1131D5049015A018FB78078382EF89486E091E0D3
S1131D600E94770DEC011B870A87FD86EC86DF86CF
S1131D70CE86332061F0E0910001F09101010280F0
S1131D80F381E02D82819381A481B58108C0809183
S1131D900A0190910B01A0910C01B0910D01480E24
S1131DA0591E6A1E7B1E4A825B826C827D821814D5
S1131DB019041A041B0444F00F2E88248A94982CC6
S1131DC0A82CFFE7BF2EF02D840C951CA61CB71C75
S1131DD08E829F82A886B98680910801909109011C
S1131DE04091840050918500B0990EC0092E000CDA
S1131DF0AA0BBB0BDC019927882760E070E0842BD9
S1131E00952BA62BB72B13C020918400309185000D
S1131E100196092E000CAA0BBB0BDC01992788271D
S1131E20A90160E070E0842B952BA62BB72B481AF0
S1131E30590A6A0A7B0A1414150416041704ACF52B
S1131E406EE071E0CE010E94340DE0910E01F0913C
S1131E500F01309721F182819381A481B581209172
S1131E600801309109012A173B07C9F49C014091EC
S1131E70840050918500841B950B019731F42091C7
S1131E808400309185002F5F3F4F30938900209369
S1131E908800EFE6F0E080818260808341C0EFE655
S1131EA0F0E080818D7F80833BC060E171E0CE01F2
S1131EB00E94F10C3320B9F1809104019091050145
S1131EC0009781F1E0910201F0910301209110014A
S1131ED03091110102811381D90116964D915D91C2
S1131EE06D917C911997D80116960D911D912D91A4
S1131EF03C911997401B510B620B730B9AF4DC0154
S1131F002D913C9111973093050120930401ED9399
S1131F10FC9390930301809302010E94FE0402C08B
S1131F20332009F07894CE01DF91CF911F910F9166
S1131F30FF90EF90DF90CF90BF90AF909F908F90E5
S1131F407F906F905F904F903F900895CF92DF9273
S1131F50EF92FF920F931F93CF93DF93EC017B01DA
S1131F606A011FB71078F894A881B981109761F1BC
S1131F701496ED91FC911597309741F0A081B181B1
S1131F801496ED91FC9115973097C1F720910001BB
S1131F90309101012A173B0721F0112309F43DC0B8
S1131FA007C0112309F43CC078948FEF9FEF52C00F
S1131FB08A819B810097D1F1FC011582148236C07D
S1131FC0789480E090E046C08091000190910101F6
S1131FD099838883112329F08A819B81019709F0D1
S1131FE07894B601CE01F7010995F82E092F8FB721
S1131FF0F894198218828A819B818230910538F085
S11320001B821A82FC01158214820E94FE04112391
S113201051F078948F2D902F1DC08FEF9FEF1AC031
S11320208FEF9FEF17C08F2D902F14C03B832A830F
S1132030F901D583C483CD010E94FE04E09100011F
S1132040F091010182819381892B09F4B9CFF9833D
S1132050E883C2CFDF91CF911F910F91FF90EF9052
S1132060DF90CF900895009100011091010180E16B
S113207091E00E94770DEC01D80113969C938E9306
S1132080129778944E855F856C857D858A859B85BE
S11320900E94A60F8FB7F8948091060190910701D2
S11320A099838883D0930701C0930601E0910201CC
S11320B0F091030100811181E8012A813B81A09103
S11320C01001B09111011097C1F02115310559F299
S11320D016968D919D910D90BC91A02DE9014E8194
S11320E05F8168857985841B950BA60BB70B181641
S11320F019061A061B060CF0B6CF109303010093C1
S11321000201809104019091050191838083F093F1
S11321100501E0930401A0910201B091030114961A
S1132120ED91FC911597309741F0A081B1811496FF
S1132130ED91FC9115973097C1F7CD010E94FE04F3
S113214092CF4231B8F42FB7F89450E0440F551FA2
S1132150FA01EE5EFE4F91838083FA01E655FE4F4D
S11321607183608341E050E0FC0153834283222366
S11321700CF4789408958C017B016A018FB7F8946C
S11321800E9493047894E114F10441F020E030E0DB
S1132190A90160E070E0CB010E94950E8FB7F8941E
S11321A00E941E05789481E083BF8895FDCF97FB3C
S11321B0072E16F4009407D077FD09D00E94F11081
S11321C007FC05D03EF4909581959F4F0895709536
S11321D061957F4F0895EE0FFF1F0590F491E02D58
S11321E00994AA1BBB1B51E107C0AA1FBB1FA6175A
S11321F0B70710F0A61BB70B881F991F5A95A9F7AC
S113220080959095BC01CD010895DC012D923D92FD
S11322104D925D926D927D928D929D92AD92BD9202
S1132220CD92DD92ED92FD920D931D93CD93DD93AE
S1132230FF91EF918DB78D938EB78D938FB78D935B
S1132240ED93FD93882799270994DC01CB01813014
S11322509105811D2D903D904D905D906D907D90E8
S11322608D909D90AD90BD90CD90DD90ED90FD90C2
S11322700D911D91CD91DD91ED91FD910D90F8940D
S1132280FEBF0FBEEDBFED91FD910994F894FFCF11
S10B2290CE01CE013601EB0181
S9030000FC
