S01400004C61625F355F4430303033452E73726563C2
S11300000C9438000C9405040C9471040C94DD04D5
S11300100C9449050C94B5050C9455000C948C0C67
S11300200C9455000C943A0C0C9421060C948D06F7
S11300300C94F9060C9465070C94D1070C943D08B4
S11300400C94A9080C9415090C9481090C94ED09DD
S11300500C94590A0C94C50A0C94310B8201310199
S11300603A0143014C0155015E01670170017901B8
S113007011241FBECFEFD4E0DEBFCDBF11E0A0E05E
S1130080B1E0E8EEFFE102C005900D92A830B1079F
S1130090D9F724E0A8E0B1E001C01D92AB35B20766
S11300A0E1F70E94F4020C94F20F0C940000FC019E
S11300B0248135812F5F3F4F358324830895CF9367
S11300C0DF93EC0140E050E067E570E00E94520EDF
S11300D0E881F98126813781D90116968D919C9109
S11300E01797DC0114964D915C911597AA81BB81F9
S11300F014966D917C911597848195810E94CC0210
S1130100DF91CF910895CF93DF93EC0140E050E06D
S113011067E570E002960E94520EE881F98126811B
S11301203781D90116968D919C911797DC0114960D
S11301304D915C911597AA81BB8114966D917C9128
S11301401597848195810E94CC02DF91CF91089507
S1130150CF93DF93EC010E94FE0081E08E83E8815F
S1130160F98126813781D90116968D919C91179733
S1130170DC0114964D915C911597AA81BB8114966C
S11301806D917C911597848195810E94CC02DF91B9
S1130190CF910895FC011682A081B18115961C921D
S11301A01E921497A281B38115961C921E921497E5
S11301B00190F081E02D0680F781E02D0680F78123
S11301C0E02D1582148208959C01E0ECF0E090810A
S11301D09923ECF79091C600953621F4C9010E9449
S11301E0CA0008959E3621F4C9010E945F00089553
S11301F0933719F4C9010E948300089586E380931C
S1130200E50087E08093E6008FE08093E70080ECD0
S11302108093E4009DE09093810098E99093C1005D
S113022096E09093C2001092C50093E39093C400AB
S11302309CE090936B0020ED20936C008CBB8DBBF5
S113024025B99EB914B815BE0895789490E0FC01C0
S1130250F097EA30F10508F069C1E25DFF4F0C94B4
S1130260970F20E030E041E050E0E1E0F0E080E092
S113027090E050C021E030E04EE050E0E1E0F0E0FA
S113028081E090E047C021E030E04BE050E0E1E065
S1130290F0E081E090E03EC020E030E04BE050E050
S11302A0E5E0F0E080E090E035C021E030E04BE0B4
S11302B050E0E4E0F0E081E090E02CC021E030E0A8
S11302C04FE050E0E4E0F0E081E090E023C020E083
S11302D030E041E050E0E1E0F0E081E090E01AC07D
S11302E021E030E04FE050E0E5E0F0E081E090E034
S11302F011C021E030E04BE050E0E5E0F0E081E0C7
S113030090E008C021E030E045E050E0E5E0F0E0B6
S113031081E090E06230710509F467C03CF4611536
S1130320710579F06130710551F1FDC064307105DA
S113033009F4A5C00CF472C06530710509F4BDC0A0
S1130340F2C0ACEEB0E06C91667F6C936C91607F10
S11303507C91862B872B8C93A1EFB0E08C91807FCE
S1130360E82BEC93E6EFF0E08081807F482B40831C
S1130370EBEFF0E08081807F282B2083D6C0ACEEA9
S1130380B0E06C916F766C936C916F707C918295F8
S11303909295907F9827807F9827862B872B8C9324
S11303A0A1EFB0E08C918F70E295F295F07FFE277B
S11303B0E07FFE27E82BEC93E6EFF0E080818F707E
S11303C042955295507F5427407F5427482B4083B1
S11303D0EBEFF0E080818F7022953295307F3227E9
S11303E0207F3227282B2083A0C0ADEEB0E06C9193
S11303F0607F862B8C93A2EFB0E08C91807FE82BFA
S1130400EC93E7EFF0E08081807F482B4083ECEFB2
S1130410F0E08081807F282B208387C0ADEEB0E0A0
S11304206C916F7082959295907F9827807F982722
S1130430862B8C93A2EFB0E08C918F70E295F295AD
S1130440F07FFE27E07FFE27E82BEC93E7EFF0E058
S113045080818F7042955295507F5427407F542756
S1130460482B4083ECEFF0E080818F702295329529
S1130470307F3227207F3227282B208356C0AEEED0
S1130480B0E06C91667F6C936C91607F7C91862B5D
S1130490872B8C93A3EFB0E08C91807FE82BEC93B7
S11304A0E8EFF0E08081807F482B4083EDEFF0E0BF
S11304B08081807F282B208338C0AEEEB0E06C9121
S11304C06F766C936C916F707C9182959295907F0E
S11304D09827807F9827862B872B8C93A3EFB0E0F7
S11304E08C918F70E295F295F07FFE27E07FFE27D6
S11304F0E82BEC93E8EFF0E080818F704295529501
S1130500507F5427407F5427482B4083EDEFF0E081
S113051080818F7022953295307F3227207F322759
S1130520282B208302C0F8940895F8940895EF923C
S1130530FF920F931F93CF93DF937C01EB0164E64B
S113054070E00E94830F0AE010E0B8010E94830F5C
S1130550862FBE01805D0E9425012196C701B80146
S11305600E94830FBE01805D0E942501DF91CF911F
S11305701F910F91FF90EF90089560E070E00E944A
S11305809702089562E070E00E949702089564E083
S113059070E00E9497020895DF92EF92FF920F930A
S11305A01F93CF93DF93F82E062FD72E142FE52E0B
S11305B0E9010E94BD02802F9D2D0E94C202812F5D
S11305C09E2D0E94C702E6ECF0E0F08200831083C7
S11305D08D8180838C818083DF91CF911F910F91D6
S11305E0FF90EF90DF900895CF93DF93CDB7DEB700
S11305F0A9970FB6F894DEBF0FBECDBFFE013196AA
S11306008AE0DF011D928A95E9F71C861B861E8607
S11306101D861F86188AFA8BE98B1C8A1B8A1E8A00
S11306201D8A188E1F8ACE010B969A8F898F1C8E75
S11306301B8E1E8E1D8E18A21F8E9AA389A3089648
S11306409CA38BA308969EA38DA318A61FA219A6EC
S113065048E064EE70E008960E944D0F40E050E0E0
S113066068EA70E0CE0183960E94670FA9960FB6E0
S1130670F894DEBF0FBECDBFDF91CF910895CF9325
S1130680DF9300D000D0CDB7DEB78BEF91E02BED38
S113069032E0FC0170979183808340968217930720
S11306A0C1F71092CC021092CB02E6E3F1E083E5AD
S11306B091E09183808380E791E0968F858FADE808
S11306C0B1E0B3AFA2AF1D921C92FA83E983E7E3D2
S11306D0F3E0FC83EB8389819A8106960E94B10F33
S11306E08B819C81E981FA81978B868B918F808F96
S11306F08FED9EE0948F838F158214827D96FA830A
S1130700E983EB81FC81E05AFF4FFC83EB83898111
S11307109A818A5A9140F9F6EEECF1E01182108246
S11307201582148213821282E1E6F0E080E880836D
S11307301082109285001092840084E080938100DE
S113074081E080936F000F900F900F900F90DF91D6
S1130750CF910895CF93DF9300D0CDB7DEB79A83BE
S11307608983809100019091010106960E94B10F46
S1130770892B59F489819A81909301018093000116
S113078061E070E006960E94D10F0F900F90DF9108
S1130790CF9108950F931F93CF93DF93E0911001AE
S11307A0F0911101309761F180910401909105015C
S11307B0009731F1C0910201D0910301AA81BB815C
S11307C0109779F0468157816085718516960D9151
S11307D01D912D913C911997401B510B620B730B8A
S11307E07AF4FC01208131813093050120930401C6
S11307F0D183C08390930301809302010E94AA03D2
S1130800DF91CF911F910F9108951F920F920FB610
S11308100F9211242F933F934F935F936F937F9382
S11308208F939F93AF93BF93EF93FF93209108010E
S1130830309109014091840050918500C901032E33
S1130840000CAA0BBB0BDC019927882760E070E041
S1130850842B952BA62BB72B80930A0190930B0125
S1130860A0930C01B0930D01B09B1BC04091840078
S113087050918500C9010196092E000CAA0BBB0BEF
S1130880DC019927882760E070E0842B952BA62B48
S1130890B72B80930A0190930B01A0930C01B093A2
S11308A00D01E091AA01F091AB01309739F060E0BD
S11308B070E0809112019091130109950E94CA037E
S11308C0FF91EF91BF91AF919F918F917F916F9124
S11308D05F914F913F912F910F900FBE0F901F90FA
S11308E018951F920F920FB60F9211242F933F93D6
S11308F04F935F936F937F938F939F93AF93BF9324
S1130900EF93FF93209108013091090140918400F5
S113091050918500C901032E000CAA0BBB0BDC010E
S11309209927882760E070E0842B952BA62BB72BA2
S113093080930A0190930B01A0930C01B0930D01D5
S1130940B09B1BC04091840050918500C901019661
S1130950092E000CAA0BBB0BDC019927882760E049
S113096070E0842B952BA62BB72B80930A019093D0
S11309700B01A0930C01B0930D01E091AC01F09137
S1130980AD01309739F061E070E0809114019091ED
S1130990150109950E94CA03FF91EF91BF91AF9190
S11309A09F918F917F916F915F914F913F912F9183
S11309B00F900FBE0F901F9018951F920F920FB6B5
S11309C00F9211242F933F934F935F936F937F93D1
S11309D08F939F93AF93BF93EF93FF93209108015D
S11309E0309109014091840050918500C901032E82
S11309F0000CAA0BBB0BDC019927882760E070E090
S1130A00842B952BA62BB72B80930A0190930B0173
S1130A10A0930C01B0930D01B09B1BC040918400C6
S1130A2050918500C9010196092E000CAA0BBB0B3D
S1130A30DC019927882760E070E0842B952BA62B96
S1130A40B72B80930A0190930B01A0930C01B093F0
S1130A500D01E091AE01F091AF01309739F062E001
S1130A6070E0809116019091170109950E94CA03C4
S1130A70FF91EF91BF91AF919F918F917F916F9172
S1130A805F914F913F912F910F900FBE0F901F9048
S1130A9018951F920F920FB60F9211242F933F9324
S1130AA04F935F936F937F938F939F93AF93BF9372
S1130AB0EF93FF9320910801309109014091840044
S1130AC050918500C901032E000CAA0BBB0BDC015D
S1130AD09927882760E070E0842B952BA62BB72BF1
S1130AE080930A0190930B01A0930C01B0930D0124
S1130AF0B09B1BC04091840050918500C9010196B0
S1130B00092E000CAA0BBB0BDC019927882760E097
S1130B1070E0842B952BA62BB72B80930A0190931E
S1130B200B01A0930C01B0930D01E091B001F09181
S1130B30B101309739F063E070E080911801909131
S1130B40190109950E94CA03FF91EF91BF91AF91DA
S1130B509F918F917F916F915F914F913F912F91D1
S1130B600F900FBE0F901F9018951F920F920FB603
S1130B700F9211242F933F934F935F936F937F931F
S1130B808F939F93AF93BF93EF93FF9320910801AB
S1130B90309109014091840050918500C901032ED0
S1130BA0000CAA0BBB0BDC019927882760E070E0DE
S1130BB0842B952BA62BB72B80930A0190930B01C2
S1130BC0A0930C01B0930D01B09B1BC04091840015
S1130BD050918500C9010196092E000CAA0BBB0B8C
S1130BE0DC019927882760E070E0842B952BA62BE5
S1130BF0B72B80930A0190930B01A0930C01B0933F
S1130C000D01E091B201F091B301309739F064E045
S1130C1070E080911A0190911B0109950E94CA030A
S1130C20FF91EF91BF91AF919F918F917F916F91C0
S1130C305F914F913F912F910F900FBE0F901F9096
S1130C4018951F920F920FB60F9211242F933F9372
S1130C504F935F936F937F938F939F93AF93BF93C0
S1130C60EF93FF9320910801309109014091840092
S1130C7050918500C901032E000CAA0BBB0BDC01AB
S1130C809927882760E070E0842B952BA62BB72B3F
S1130C9080930A0190930B01A0930C01B0930D0172
S1130CA0B09B1BC04091840050918500C9010196FE
S1130CB0092E000CAA0BBB0BDC019927882760E0E6
S1130CC070E0842B952BA62BB72B80930A0190936D
S1130CD00B01A0930C01B0930D01E091B401F091CC
S1130CE0B501309739F065E070E080911C01909176
S1130CF01D0109950E94CA03FF91EF91BF91AF9125
S1130D009F918F917F916F915F914F913F912F911F
S1130D100F900FBE0F901F9018951F920F920FB651
S1130D200F9211242F933F934F935F936F937F936D
S1130D308F939F93AF93BF93EF93FF9320910801F9
S1130D40309109014091840050918500C901032E1E
S1130D50000CAA0BBB0BDC019927882760E070E02C
S1130D60842B952BA62BB72B80930A0190930B0110
S1130D70A0930C01B0930D01B09B1BC04091840063
S1130D8050918500C9010196092E000CAA0BBB0BDA
S1130D90DC019927882760E070E0842B952BA62B33
S1130DA0B72B80930A0190930B01A0930C01B0938D
S1130DB00D01E091B601F091B701309739F066E08A
S1130DC070E080911E0190911F0109950E94CA0351
S1130DD0FF91EF91BF91AF919F918F917F916F910F
S1130DE05F914F913F912F910F900FBE0F901F90E5
S1130DF018951F920F920FB60F9211242F933F93C1
S1130E004F935F936F937F938F939F93AF93BF930E
S1130E10EF93FF93209108013091090140918400E0
S1130E2050918500C901032E000CAA0BBB0BDC01F9
S1130E309927882760E070E0842B952BA62BB72B8D
S1130E4080930A0190930B01A0930C01B0930D01C0
S1130E50B09B1BC04091840050918500C90101964C
S1130E60092E000CAA0BBB0BDC019927882760E034
S1130E7070E0842B952BA62BB72B80930A019093BB
S1130E800B01A0930C01B0930D01E091B801F09116
S1130E90B901309739F067E070E0809120019091BA
S1130EA0210109950E94CA03FF91EF91BF91AF916F
S1130EB09F918F917F916F915F914F913F912F916E
S1130EC00F900FBE0F901F9018951F920F920FB6A0
S1130ED00F9211242F933F934F935F936F937F93BC
S1130EE08F939F93AF93BF93EF93FF932091080148
S1130EF0309109014091840050918500C901032E6D
S1130F00000CAA0BBB0BDC019927882760E070E07A
S1130F10842B952BA62BB72B80930A0190930B015E
S1130F20A0930C01B0930D01B09B1BC040918400B1
S1130F3050918500C9010196092E000CAA0BBB0B28
S1130F40DC019927882760E070E0842B952BA62B81
S1130F50B72B80930A0190930B01A0930C01B093DB
S1130F600D01E091BA01F091BB01309739F068E0CE
S1130F7070E0809122019091230109950E94CA0397
S1130F80FF91EF91BF91AF919F918F917F916F915D
S1130F905F914F913F912F910F900FBE0F901F9033
S1130FA018951F920F920FB60F9211242F933F930F
S1130FB04F935F936F937F938F939F93AF93BF935D
S1130FC0EF93FF932091080130910901409184002F
S1130FD050918500C901032E000CAA0BBB0BDC0148
S1130FE09927882760E070E0842B952BA62BB72BDC
S1130FF080930A0190930B01A0930C01B0930D010F
S1131000B09B1BC04091840050918500C90101969A
S1131010092E000CAA0BBB0BDC019927882760E082
S113102070E0842B952BA62BB72B80930A01909309
S11310300B01A0930C01B0930D01E091BC01F09160
S1131040BD01309739F069E070E0809124019091FE
S1131050250109950E94CA03FF91EF91BF91AF91B9
S11310609F918F917F916F915F914F913F912F91BC
S11310700F900FBE0F901F9018951F920F920FB6EE
S11310800F9211242F933F934F935F936F937F930A
S11310908F939F93AF93BF93EF93FF932091080196
S11310A0309109014091840050918500C901032EBB
S11310B0000CAA0BBB0BDC019927882760E070E0C9
S11310C0842B952BA62BB72B80930A0190930B01AD
S11310D0A0930C01B0930D01B09B1BC04091840000
S11310E050918500C9010196092E000CAA0BBB0B77
S11310F0DC019927882760E070E0842B952BA62BD0
S1131100B72B80930A0190930B01A0930C01B09329
S11311100D01E091BE01F091BF01309739F06AE012
S113112070E0809126019091270109950E94CA03DD
S1131130FF91EF91BF91AF919F918F917F916F91AB
S11311405F914F913F912F910F900FBE0F901F9081
S113115018951F920F920FB60F9211242F933F935D
S11311604F935F936F937F938F939F93AF93BF93AB
S1131170EF93FF932091080130910901409184007D
S113118050918500C901032E000CAA0BBB0BDC0196
S11311909927882760E070E0842B952BA62BB72B2A
S11311A080930A0190930B01A0930C01B0930D015D
S11311B0B09B1BC04091840050918500C9010196E9
S11311C0092E000CAA0BBB0BDC019927882760E0D1
S11311D070E0842B952BA62BB72B80930A01909358
S11311E00B01A0930C01B0930D01E091C001F091AB
S11311F0C101309739F06BE070E080912801909143
S1131200290109950E94CA03FF91EF91BF91AF9103
S11312109F918F917F916F915F914F913F912F910A
S11312200F900FBE0F901F9018951F920F920FB63C
S11312300F9211242F933F934F935F936F937F9358
S11312408F939F93AF93BF93EF93FF9320910801E4
S1131250309109014091840050918500C901032E09
S1131260000CAA0BBB0BDC019927882760E070E017
S1131270842B952BA62BB72B80930A0190930B01FB
S1131280A0930C01B0930D01B09B1BC0409184004E
S113129050918500C9010196092E000CAA0BBB0BC5
S11312A0DC019927882760E070E0842B952BA62B1E
S11312B0B72B80930A0190930B01A0930C01B09378
S11312C00D01E091C201F091C301309739F06CE057
S11312D070E080912A0190912B0109950E94CA0324
S11312E0FF91EF91BF91AF919F918F917F916F91FA
S11312F05F914F913F912F910F900FBE0F901F90D0
S113130018951F920F920FB60F9211242F933F93AB
S11313104F935F936F937F938F939F93AF93BF93F9
S1131320EF93FF93209108013091090140918400CB
S113133050918500C901032E000CAA0BBB0BDC01E4
S11313409927882760E070E0842B952BA62BB72B78
S113135080930A0190930B01A0930C01B0930D01AB
S1131360B09B1BC04091840050918500C901019637
S1131370092E000CAA0BBB0BDC019927882760E01F
S113138070E0842B952BA62BB72B80930A019093A6
S11313900B01A0930C01B0930D01E091C401F091F5
S11313A0C501309739F06DE070E080912C01909187
S11313B02D0109950E94CA03FF91EF91BF91AF914E
S11313C09F918F917F916F915F914F913F912F9159
S11313D00F900FBE0F901F9018951F920F920FB68B
S11313E00F9211242F933F934F935F936F937F93A7
S11313F08F939F93AF93BF93EF93FF932091080133
S1131400309109014091840050918500C901032E57
S1131410000CAA0BBB0BDC019927882760E070E065
S1131420842B952BA62BB72B80930A0190930B0149
S1131430A0930C01B0930D01B09B1BC0409184009C
S113144050918500C9010196092E000CAA0BBB0B13
S1131450DC019927882760E070E0842B952BA62B6C
S1131460B72B80930A0190930B01A0930C01B093C6
S11314700D01E091C601F091C701309739F06EE09B
S113148070E080912E0190912F0109950E94CA036A
S1131490FF91EF91BF91AF919F918F917F916F9148
S11314A05F914F913F912F910F900FBE0F901F901E
S11314B018951F920F920FB60F9211242F933F93FA
S11314C04F935F936F937F938F939F93AF93BF9348
S11314D0EF93FF932091080130910901409184001A
S11314E050918500C901032E000CAA0BBB0BDC0133
S11314F09927882760E070E0842B952BA62BB72BC7
S113150080930A0190930B01A0930C01B0930D01F9
S1131510B09B1BC04091840050918500C901019685
S1131520092E000CAA0BBB0BDC019927882760E06D
S113153070E0842B952BA62BB72B80930A019093F4
S11315400B01A0930C01B0930D01E091C801F0913F
S1131550C901309739F06FE070E0809130019091CB
S1131560310109950E94CA03FF91EF91BF91AF9198
S11315709F918F917F916F915F914F913F912F91A7
S11315800F900FBE0F901F9018951F920F920FB6D9
S11315900F9211242F933F934F935F936F937F93F5
S11315A08F939F93AF93BF93EF93FF932091080181
S11315B0309109014091840050918500C901032EA6
S11315C0000CAA0BBB0BDC019927882760E070E0B4
S11315D0842B952BA62BB72B80930A0190930B0198
S11315E0A0930C01B0930D01B09B1BC040918400EB
S11315F050918500C9010196092E000CAA0BBB0B62
S1131600DC019927882760E070E0842B952BA62BBA
S1131610B72B80930A0190930B01A0930C01B09314
S11316200D01E091CA01F091CB01309739F060E1EE
S113163070E0809132019091330109950E94CA03B0
S1131640FF91EF91BF91AF919F918F917F916F9196
S11316505F914F913F912F910F900FBE0F901F906C
S113166018951F920F920FB60F9211242F933F9348
S11316704F935F936F937F938F939F93AF93BF9396
S1131680EF93FF9320910801309109014091840068
S113169050918500C901032E000CAA0BBB0BDC0181
S11316A09927882760E070E0842B952BA62BB72B15
S11316B080930A0190930B01A0930C01B0930D0148
S11316C0B09B1BC04091840050918500C9010196D4
S11316D0092E000CAA0BBB0BDC019927882760E0BC
S11316E070E0842B952BA62BB72B80930A01909343
S11316F00B01A0930C01B0930D01E091CC01F0918A
S1131700CD01309739F061E170E08091340190911E
S1131710350109950E94CA03FF91EF91BF91AF91E2
S11317209F918F917F916F915F914F913F912F91F5
S11317300F900FBE0F901F901895EF92FF920F938A
S11317401F93CF93DF937B01EB01A881B98110979D
S113175061F1FC01068117812085318516964D9132
S11317605D916D917C91199704171507260737072A
S113177014F41BC0DF01ED91FC911197309749F0EF
S11317804681578160857185041715072607370739
S11317908CF7EC01F983E883109721F4F701918326
S11317A0808307C08D939C9304C0EC01B983A88304
S11317B0F5CFDF91CF911F910F91FF90EF90089596
S11317C0EF92FF920F931F93CF93DF937B01EB0173
S11317D0A881B981109761F1FC01028113812481F0
S11317E0358112964D915D916D917C9115970417F9
S11317F015072607370714F41BC0DF01ED91FC9190
S11318001197309749F0428153816481758104179F
S11318101507260737078CF7EC01F983E88310973F
S113182021F4F7019183808307C08D939C9304C0B6
S1131830EC01B983A883F5CFDF91CF911F910F916C
S1131840FF90EF900895DC01ED91FC911197309792
S113185059F48FEF8093EC008093ED008093EE00B9
S113186081E083BF8895FDCF208131812D933C9306
S1131870CF0108951F920F920FB60F9211242F9348
S11318803F934F935F936F937F938F939F93EF93C4
S1131890FF938091080190910901019690930901A9
S11318A080930801E0910E01F0910F01309701F14E
S11318B0428153816481758186179707C9F4CA01EF
S11318C02091840030918500421B530B4130510517
S11318D029F4809184009091850001969093890069
S11318E080938800EFE6F0E080818260808305C009
S11318F0EFE6F0E080818D7F8083FF91EF919F91EF
S11319008F917F916F915F914F913F912F910F90A4
S11319100FBE0F901F9018951F920F920FB60F9243
S11319201124CF92DF92EF92FF922F933F934F9324
S11319305F936F937F938F939F93AF93BF93EF9333
S1131940FF93C0900801D090090120918400309148
S11319508500B0990FC00D2C000CEE08FF08D601CD
S1131960992788276901E12CF12CC82AD92AEA2A67
S1131970FB2A15C020918400309185008FEFC81A8E
S1131980D80A0D2C000CEE08FF08D60199278827E9
S11319906901E12CF12CC82AD92AEA2AFB2AE09110
S11319A00E01F0910F01309709F442C082819381B6
S11319B0A481B5818C199D09AE09BF0918161906B1
S11319C01A061B06ECF18EE091E00E94230C60E104
S11319D071E00E949D0BE0910E01F0910F01309790
S11319E039F182819381A481B5818C199D09AE0955
S11319F0BF09181619061A061B062CF721C09C01EC
S1131A004091840050918500841B950B019731F41B
S1131A1020918400309185002F5F3F4F30938900DF
S1131A2020938800EFE6F0E080818260808305C027
S1131A30EFE6F0E080818D7F80830E94CA030CC0B2
S1131A4082819381A481B58120910801309109019B
S1131A502A173B0769F7D3CFFF91EF91BF91AF915D
S1131A609F918F917F916F915F914F913F912F91B2
S1131A70FF90EF90DF90CF900F900FBE0F901F90CC
S1131A8018953F924F925F926F927F928F929F929E
S1131A90AF92BF92CF92DF92EF92FF920F931F9378
S1131AA0CF93DF932B013C0149015A018FB7807812
S1131AB0382EF89486E091E00E94230CEC011B87F9
S1131AC00A87FD86EC86DF86CE86332061F0E091BE
S1131AD00001F09101010280F381E02D8281938164
S1131AE0A481B58108C080910A0190910B01A09155
S1131AF00C01B0910D01480E591E6A1E7B1E4A82CC
S1131B005B826C827D82181419041A041B0444F04D
S1131B100F2E88248A94982CA82CFFE7BF2EF02D32
S1131B20840C951CA61CB71C8E829F82A886B9863D
S1131B3080910801909109014091840050918500A1
S1131B40B0990EC0092E000CAA0BBB0BDC0199271F
S1131B50882760E070E0842B952BA62BB72B13C04D
S1131B6020918400309185000196092E000CAA0B67
S1131B70BB0BDC0199278827A90160E070E0842B66
S1131B80952BA62BB72B481A590A6A0A7B0A1414F8
S1131B90150416041704ACF56EE071E0CE010E9442
S1131BA0E00BE0910E01F0910F01309721F1828159
S1131BB09381A481B58120910801309109012A17EC
S1131BC03B07C9F49C014091840050918500841B1B
S1131BD0950B019731F420918400309185002F5F9B
S1131BE03F4F3093890020938800EFE6F0E0808136
S1131BF08260808341C0EFE6F0E080818D7F808346
S1131C003BC060E171E0CE010E949D0B3320B9F12D
S1131C108091040190910501009781F1E091020106
S1131C20F09103012091100130911101028113817F
S1131C30D90116964D915D916D917C911997D801BA
S1131C4016960D911D912D913C911997401B510BA6
S1131C50620B730B9AF4DC012D913C911197309334
S1131C60050120930401ED93FC9390930301809369
S1131C7002010E94AA0302C0332009F07894CE0125
S1131C80DF91CF911F910F91FF90EF90DF90CF9054
S1131C90BF90AF909F908F907F906F905F904F9088
S1131CA03F900895CF92DF92EF92FF920F931F938C
S1131CB0CF93DF93EC017B016A011FB71078F8948E
S1131CC0A881B981109761F11496ED91FC91159753
S1131CD0309741F0A081B1811496ED91FC91159754
S1131CE03097C1F720910001309101012A173B0779
S1131CF021F0112309F43DC007C0112309F43CC0AD
S1131D0078948FEF9FEF52C08A819B810097D1F125
S1131D10FC011582148236C0789480E090E046C0BD
S1131D20809100019091010199838883112329F006
S1131D308A819B81019709F07894B601CE01F7015D
S1131D400995F82E092F8FB7F894198218828A8181
S1131D509B818230910538F01B821A82FC01158226
S1131D6014820E94AA03112351F078948F2D902F8E
S1131D701DC08FEF9FEF1AC08FEF9FEF17C08F2DFD
S1131D80902F14C03B832A83F901D583C483CD01EA
S1131D900E94AA03E0910001F091010182819381E4
S1131DA0892B09F4B9CFF983E883C2CFDF91CF91AE
S1131DB01F910F91FF90EF90DF90CF9008950091C5
S1131DC000011091010180E191E00E94230CEC01DB
S1131DD0D80113969C938E93129778944E855F85C1
S1131DE06C857D858A859B850E94520E8FB7F894F9
S1131DF0809106019091070199838883D09307010C
S1131E00C0930601E0910201F09103010081118168
S1131E10E8012A813B81A0911001B0911101109732
S1131E20C1F02115310559F216968D919D910D90B1
S1131E30BC91A02DE9014E815F8168857985841B61
S1131E40950BA60BB70B181619061A061B060CF0F1
S1131E50B6CF109303010093020180910401909185
S1131E60050191838083F0930501E0930401A0911F
S1131E700201B09103011496ED91FC9115973097EE
S1131E8041F0A081B1811496ED91FC9115973097A2
S1131E90C1F7CD010E94AA0392CF4231B8F42FB703
S1131EA0F89450E0440F551FFA01EE5EFE4F918303
S1131EB08083FA01E655FE4F7183608341E050E070
S1131EC0FC015383428322230CF4789408958C01FB
S1131ED07B016A018FB7F8940E943F037894E11460
S1131EE0F10441F020E030E0A90160E070E0CB01B2
S1131EF00E94410D8FB7F8940E94CA03789481E040
S1131F0083BF8895FDCF97FB072E16F4009407D066
S1131F1077FD09D00E949D0F07FC05D03EF49095F3
S1131F2081959F4F0895709561957F4F0895EE0FA9
S1131F30FF1F0590F491E02D0994AA1BBB1B51E1EE
S1131F4007C0AA1FBB1FA617B70710F0A61BB70B25
S1131F50881F991F5A95A9F780959095BC01CD01CA
S1131F600895DC012D923D924D925D926D927D9289
S1131F708D929D92AD92BD92CD92DD92ED92FD92A5
S1131F800D931D93CD93DD93FF91EF918DB78D93B9
S1131F908EB78D938FB78D93ED93FD9388279927F3
S1131FA00994DC01CB0181309105811D2D903D9078
S1131FB04D905D906D907D908D909D90AD90BD9075
S1131FC0CD90DD90ED90FD900D911D91CD91DD9121
S1131FD0ED91FD910D90F894FEBF0FBEEDBFED9114
S10B1FE0FD910994F894FFCF70
S10B1FE8CE01CE013601EB012C
S9030000FC
