S01400004C61625F355F4430303033452E73726563C2
S11300000C9438000C94A7060C9413070C947F07E7
S11300100C94EB070C9457080C9455000C942E0F79
S11300200C9455000C94DC0E0C94C3080C942F090A
S11300300C949B090C94070A0C94730A0C94DF0A21
S11300400C944B0B0C94B70B0C94230C0C948F0C4A
S11300500C94FB0C0C94670D0C94D30D0F04BE038D
S1130060C703D003D903E203EB03F403FD0306043F
S113007011241FBECFEFD4E0DEBFCDBF11E0A0E05E
S1130080B1E0E8E3F5E202C005900D92A830B107B3
S1130090D9F724E0A8E0B1E001C01D92AB35B20766
S11300A0E1F70E946C050C949A120C940000FC0178
S11300B0248135812F5F3F4F358324830895FC01CC
S11300C084819581019795838483A681B78116964F
S11300D08D919C9117970A9617969C938E931697D9
S11300E00680F781E02D8581882349F00680F78119
S11300F0E02D868197810196978386830895848174
S1130100882341F00680F781E02D80859185019652
S1130110918780870895CF93DF93EC016130710557
S113012031F4E881F981868197810E949603E88100
S1130130F981A681B78116960D90BC91A02D1496D5
S11301404D915C911597AA81BB8114966D917C9118
S11301501597848195810E945905DF91CF91089567
S1130160CF92DF92EF92FF920F931F93CF93DF937F
S1130170FC0126812223E9F0EC010190F081E02DBD
S1130180068117810A5F1F4FC12CD12C0F2EF9EC69
S1130190EF2EF5E0FF2EF02D20E030E0A90160E025
S11301A070E0CB010E94E30F60E070E0CE010E949A
S11301B08B00DF91CF911F910F91FF90EF90DF9013
S11301C0CF900895CF92DF92EF92FF920F931F93F7
S11301D0CF93DF93EC01E881F9810680F781E02D6C
S11301E08581882309F1C12CD12C0F2EFFE5EF2E38
S11301F0F0E0FF2EF02D8E0120E030E0A90160E058
S113020070E0CB010E94E30F0F2EF0EBEF2EF0E035
S1130210FF2EF02D20E030E0A9016AE572E682E0CD
S113022090E00E94E30F2BC0EA81FB810680F781F6
S1130230E02D8481882319F1C12CD12C0F2EFFE5E8
S1130240EF2EF0E0FF2EF02D8E010E5F1F4F20E009
S113025030E0A90160E070E0CB010E94E30F0F2EB3
S1130260F0EBEF2EF0E0FF2EF02D8E0120E030E0D9
S1130270A9016AE572E682E090E00E94E30FE8815A
S1130280F98184819581181619069CF5AA81BB8190
S113029014962D913C911597232B09F477C0A681D0
S11302A0B78114962C911497211123C016960D90A2
S11302B0BC91A02D18962D913C911997232BC9F42C
S11302C041E050E065E272E1CF0106960E94F4102D
S11302D08881998140E050E068E272E106960E94CC
S11302E0F41061E070E0CE010E948B001D821C823C
S11302F035C0AA81BB8114962D913C911597121695
S1130300130664F5892B31F0A681B78115968C917B
S1130310811124C0A681B78116960D90BC91A02DA1
S113032016968D919C911797892BC1F441E050E06A
S113033068E272E1CF0106960E94F41088819981E7
S113034040E050E065E272E106960E94F41061E03C
S113035070E0CE010E948B001D821C8260E070E080
S1130360CE010E948B00C12CD12C0F2EF2EEEF2E69
S1130370F0E0FF2EF02D8E0120E030E0A90162E1D3
S11303807AE780E090E00E94E30F0EC0A681B78177
S113039016960D90BC91A02D18968D919C9119974D
S11303A0892B09F48DCFDACFDF91CF911F910F9173
S11303B0FF90EF90DF90CF900895CF93DF93EC01FF
S11303C040E050E067E570E00E94F41060E070E007
S11303D0CE010E948B00DF91CF910895CF93DF93DC
S11303E0EC0140E050E067E570E002960E94F410F2
S11303F060E070E0CE010E948B00DF91CF91089500
S1130400CF93DF93EC010E94E20081E08E83CE0162
S11304100E94DD0160E070E0CE010E948B00DF915C
S1130420CF910895DC0116961C921697ED91FC91DC
S11304301197158214821296ED91FC9113971582EF
S11304401482ED91FC910680F781E02D0680F781FE
S1130450E02D1582148260E070E00E948B00089504
S1130460CF92DF92EF92FF920F931F93CF93DF937C
S1130470EC018C819D81803191050CF45FC01D825B
S11304801C82A881B9811696ED91FC9117978581FC
S11304908823F9F040E050E065E272E1CD01069670
S11304A00E94F410088119810A5F1F4FCC24C39461
S11304B0D12C0F2EF8E2EF2EF2E1FF2EF02D20E0EA
S11304C030E0A9016AE572E682E090E00E94E30F61
S11304D021C084818823F1F040E050E068E272E1B9
S11304E0CD0106960E94F410088119810A5F1F4FFE
S11304F0CC24C394D12C0F2EF5E2EF2EF2E1FF2E83
S1130500F02D20E030E0A9016AE572E682E090E097
S11305100E94E30FCC24C394D12C0F2EFBE8EF2EC2
S1130520F0E0FF2EF02D8E0120E030E0A9016AE515
S113053072E682E090E00E94E30F0EC0E881F98148
S11305400680F781E02D2581211103C02481222317
S113055019F001969D838C8360E070E0CE010E94C7
S11305608B00DF91CF911F910F91FF90EF90DF905F
S1130570CF900895CF92DF92EF92FF920F931F9343
S1130580CF93DF93EC01E881F9810680F781E02DB8
S1130590868197810A9697838683E881F98106800C
S11305A0F781E02D0680F781E02D86819781019601
S11305B097838683CE010E943002C12CD12C0F2E4A
S11305C0F0EBEF2EF0E0FF2EF02D8E0120E030E076
S11305D0A9016AE572E682E090E00E94E30FDF91F0
S11305E0CF911F910F91FF90EF90DF90CF900895DE
S11305F0CF92DF92EF92FF920F931F93CF93DF93EB
S1130600EC01E881F9810680F781E02D86819781EC
S11306100A9697838683E881F9810680F781E02D25
S11306200680F781E02D80859185019691878087EA
S1130630CE010E943002C12CD12C0F2EF0EBEF2EF4
S1130640F0E0FF2EF02D8E0120E030E0A9016AE5F4
S113065072E682E090E00E94E30FDF91CF911F9158
S11306600F91FF90EF90DF90CF900895CF93DF9399
S1130670DC0116968C911697882371F1E0ECF0E07A
S113068090819923ECF7ED018091C6008E3621F418
S1130690CD010E94DD011BC08091C60080FF04C013
S11306A0CD010E94BA0213C08091C600833721F4A1
S11306B0CD010E94EE010BC08091C600837021F031
S11306C0CD010E94F80203C0CD010E94120260E035
S11306D070E0CE010E948B00DF91CF91089586E3F4
S11306E08093E50087E08093E6008FE08093E70045
S11306F080EC8093E4009DE09093810098E99093CE
S1130700C10096E09093C2001092C50093E39093C9
S1130710C4009CE090936B0020ED20936C008CBB94
S11307208DBB25B99EB914B815BE0895FC01358159
S11307308481F0E13F9FB001112490E4899FA001DE
S11307401124462B91E03927E0E23E9F90011124C9
S1130750242B9827F0E89F9FC0011124822B8093BB
S1130760C6000895789490E0FC01F097EA30F10512
S113077008F069C1E25DFF4F0C943F1220E030E0C5
S113078041E050E0E1E0F0E080E090E050C021E0A2
S113079030E04EE050E0E1E0F0E081E090E047C07E
S11307A021E030E04BE050E0E1E0F0E081E090E077
S11307B03EC020E030E04BE050E0E5E0F0E080E0D7
S11307C090E035C021E030E04BE050E0E4E0F0E0C0
S11307D081E090E02CC021E030E04FE050E0E4E024
S11307E0F0E081E090E023C020E030E041E050E020
S11307F0E1E0F0E081E090E01AC021E030E04FE079
S113080050E0E5E0F0E081E090E011C021E030E06C
S11308104BE050E0E5E0F0E081E090E008C021E04A
S113082030E045E050E0E5E0F0E081E090E0623067
S1130830710509F467C03CF46115710579F0613004
S1130840710551F1FDC06430710509F4A5C00CF4C3
S113085072C06530710509F4BDC0F2C0ACEEB0E001
S11308606C91667F6C936C91607F7C91862B872B57
S11308708C93A1EFB0E08C91807FE82BEC93E6EFB2
S1130880F0E08081807F482B4083EBEFF0E08081B3
S1130890807F282B2083D6C0ACEEB0E06C916F76BD
S11308A06C936C916F707C9182959295907F982750
S11308B0807F9827862B872B8C93A1EFB0E08C91B7
S11308C08F70E295F295F07FFE27E07FFE27E82BFC
S11308D0EC93E6EFF0E080818F7042955295507F63
S11308E05427407F5427482B4083EBEFF0E080816E
S11308F08F7022953295307F3227207F3227282B24
S11309002083A0C0ADEEB0E06C91607F862B8C9309
S1130910A2EFB0E08C91807FE82BEC93E7EFF0E05E
S11309208081807F482B4083ECEFF0E08081807FE2
S1130930282B208387C0ADEEB0E06C916F70829558
S11309409295907F9827807F9827862B8C93A2EF8F
S1130950B0E08C918F70E295F295F07FFE27E07FF6
S1130960FE27E82BEC93E7EFF0E080818F7042954F
S11309705295507F5427407F5427482B4083ECEFF7
S1130980F0E080818F7022953295307F3227207F6E
S11309903227282B208356C0AEEEB0E06C91667FE0
S11309A06C936C91607F7C91862B872B8C93A3EF47
S11309B0B0E08C91807FE82BEC93E8EFF0E080814D
S11309C0807F482B4083EDEFF0E08081807F282BEF
S11309D0208338C0AEEEB0E06C916F766C936C916E
S11309E06F707C9182959295907F9827807F98274D
S11309F0862B872B8C93A3EFB0E08C918F70E295BC
S1130A00F295F07FFE27E07FFE27E82BEC93E8EFDA
S1130A10F0E080818F7042955295507F5427407F3B
S1130A205427482B4083EDEFF0E080818F702295AE
S1130A303295307F3227207F3227282B208302C033
S1130A40F8940895F8940895EF92FF920F931F93EA
S1130A50CF93DF937C01EB0164E670E00E942B12DC
S1130A600AE010E0B8010E942B12862FBE01805DBF
S1130A700E94B2032196C701B8010E942B12BE0145
S1130A80805D0E94B203DF91CF911F910F91FF907F
S1130A90EF90089560E070E00E942405089562E0FC
S1130AA070E00E942405089564E070E00E9424052B
S1130AB008950F931F93CF93DF938B01EA010E9454
S1130AC04A05C8010E944F05CE010E945405DF91DA
S1130AD0CF911F910F910895CF93DF93CDB7DEB7D8
S1130AE0A9970FB6F894DEBF0FBECDBF0E946F0367
S1130AF0FE0131968AE0DF011D928A95E9F71C8692
S1130B001B861E861D861F86188AFA8BE98B1C8A13
S1130B101B8A1E8A1D8A25E030E0388F2F8BCE0178
S1130B200B969A8F898F1C8E1B8E1E8E1D8E38A35A
S1130B302F8F9AA389A308969CA38BA308969EA3A0
S1130B408DA318A61FA219A648E066E373E00896D1
S1130B500E94EF114AE066E373E0CE0183960E949F
S1130B60EF1149E066E373E0CE0183960E94EF1132
S1130B7040E050E060E072E0CE0183960E940912EA
S1130B80A9960FB6F894DEBF0FBECDBFDF91CF910B
S1130B900895FC01848195810197958384838681DE
S1130BA097811816190624F401979783868308956C
S1130BB080859185181619061CF401979187808702
S1130BC00895CF93DF9300D000D0CDB7DEB78BEF7D
S1130BD091E02BED32E0FC01709791838083409685
S1130BE082179307C1F71092CC021092CB02E6E36E
S1130BF0F1E083E591E09183808380E791E0968F33
S1130C00858FADE8B1E0B3AFA2AF1D921C92FA8319
S1130C10E983E7E3F3E0FC83EB8389819A81069619
S1130C200E9459128B819C81E981FA81978B868B72
S1130C30918F808F81E891E1948F838F1582148244
S1130C407D96FA83E983EB81FC81E05AFF4FFC83B4
S1130C50EB8389819A818A5A9140F9F6EEECF1E0AE
S1130C60118210821582148213821282E1E6F0E06E
S1130C7080E880831082109285001092840084E0C2
S1130C808093810081E080936F000F900F900F900C
S1130C900F90DF91CF910895CF93DF9300D0CDB71C
S1130CA0DEB79A83898380910001909101010696B1
S1130CB00E945912892B59F489819A8190930101D8
S1130CC08093000161E070E006960E9479120F9013
S1130CD00F90DF91CF9108950F931F93CF93DF93DC
S1130CE0E0911001F0911101309761F180910401BC
S1130CF090910501009731F1C0910201D091030157
S1130D00AA81BB81109779F04681578160857185EE
S1130D1016960D911D912D913C911997401B510BE5
S1130D20620B730B7AF4FC0120813181309305014D
S1130D3020930401D183C083909303018093020123
S1130D400E944C06DF91CF911F910F9108951F923D
S1130D500F920FB60F9211242F933F934F935F93EB
S1130D606F937F938F939F93AF93BF93EF93FF936F
S1130D70209108013091090140918400509185002F
S1130D80C901032E000CAA0BBB0BDC019927882791
S1130D9060E070E0842B952BA62BB72B80930A017F
S1130DA090930B01A0930C01B0930D01B09B1BC059
S1130DB04091840050918500C9010196092E000CD0
S1130DC0AA0BBB0BDC019927882760E070E0842B19
S1130DD0952BA62BB72B80930A0190930B01A0931C
S1130DE00C01B0930D01E091AA01F091AB01309791
S1130DF039F060E070E0809112019091130109953F
S1130E000E946C06FF91EF91BF91AF919F918F91DA
S1130E107F916F915F914F913F912F910F900FBEF2
S1130E200F901F9018951F920F920FB60F921124D6
S1130E302F933F934F935F936F937F938F939F93DE
S1130E40AF93BF93EF93FF93209108013091090171
S1130E504091840050918500C901032E000CAA0B17
S1130E60BB0BDC019927882760E070E0842B952B6D
S1130E70A62BB72B80930A0190930B01A0930C012E
S1130E80B0930D01B09B1BC040918400509185002C
S1130E90C9010196092E000CAA0BBB0BDC01992792
S1130EA0882760E070E0842B952BA62BB72B8093CA
S1130EB00A0190930B01A0930C01B0930D01E091F2
S1130EC0AC01F091AD01309739F061E070E08091B0
S1130ED014019091150109950E946C06FF91EF9100
S1130EE0BF91AF919F918F917F916F915F914F913E
S1130EF03F912F910F900FBE0F901F9018951F9246
S1130F000F920FB60F9211242F933F934F935F9339
S1130F106F937F938F939F93AF93BF93EF93FF93BD
S1130F20209108013091090140918400509185007D
S1130F30C901032E000CAA0BBB0BDC0199278827DF
S1130F4060E070E0842B952BA62BB72B80930A01CD
S1130F5090930B01A0930C01B0930D01B09B1BC0A7
S1130F604091840050918500C9010196092E000C1E
S1130F70AA0BBB0BDC019927882760E070E0842B67
S1130F80952BA62BB72B80930A0190930B01A0936A
S1130F900C01B0930D01E091AE01F091AF013097D7
S1130FA039F062E070E08091160190911701099583
S1130FB00E946C06FF91EF91BF91AF919F918F9129
S1130FC07F916F915F914F913F912F910F900FBE41
S1130FD00F901F9018951F920F920FB60F92112425
S1130FE02F933F934F935F936F937F938F939F932D
S1130FF0AF93BF93EF93FF932091080130910901C0
S11310004091840050918500C901032E000CAA0B65
S1131010BB0BDC019927882760E070E0842B952BBB
S1131020A62BB72B80930A0190930B01A0930C017C
S1131030B0930D01B09B1BC040918400509185007A
S1131040C9010196092E000CAA0BBB0BDC019927E0
S1131050882760E070E0842B952BA62BB72B809318
S11310600A0190930B01A0930C01B0930D01E09140
S1131070B001F091B101309739F063E070E08091F4
S113108018019091190109950E946C06FF91EF9146
S1131090BF91AF919F918F917F916F915F914F918C
S11310A03F912F910F900FBE0F901F9018951F9294
S11310B00F920FB60F9211242F933F934F935F9388
S11310C06F937F938F939F93AF93BF93EF93FF930C
S11310D020910801309109014091840050918500CC
S11310E0C901032E000CAA0BBB0BDC01992788272E
S11310F060E070E0842B952BA62BB72B80930A011C
S113110090930B01A0930C01B0930D01B09B1BC0F5
S11311104091840050918500C9010196092E000C6C
S1131120AA0BBB0BDC019927882760E070E0842BB5
S1131130952BA62BB72B80930A0190930B01A093B8
S11311400C01B0930D01E091B201F091B30130971D
S113115039F064E070E080911A0190911B010995C7
S11311600E946C06FF91EF91BF91AF919F918F9177
S11311707F916F915F914F913F912F910F900FBE8F
S11311800F901F9018951F920F920FB60F92112473
S11311902F933F934F935F936F937F938F939F937B
S11311A0AF93BF93EF93FF9320910801309109010E
S11311B04091840050918500C901032E000CAA0BB4
S11311C0BB0BDC019927882760E070E0842B952B0A
S11311D0A62BB72B80930A0190930B01A0930C01CB
S11311E0B0930D01B09B1BC04091840050918500C9
S11311F0C9010196092E000CAA0BBB0BDC0199272F
S1131200882760E070E0842B952BA62BB72B809366
S11312100A0190930B01A0930C01B0930D01E0918E
S1131220B401F091B501309739F065E070E0809138
S11312301C0190911D0109950E946C06FF91EF918C
S1131240BF91AF919F918F917F916F915F914F91DA
S11312503F912F910F900FBE0F901F9018951F92E2
S11312600F920FB60F9211242F933F934F935F93D6
S11312706F937F938F939F93AF93BF93EF93FF935A
S1131280209108013091090140918400509185001A
S1131290C901032E000CAA0BBB0BDC01992788277C
S11312A060E070E0842B952BA62BB72B80930A016A
S11312B090930B01A0930C01B0930D01B09B1BC044
S11312C04091840050918500C9010196092E000CBB
S11312D0AA0BBB0BDC019927882760E070E0842B04
S11312E0952BA62BB72B80930A0190930B01A09307
S11312F00C01B0930D01E091B601F091B701309764
S113130039F066E070E080911E0190911F0109950B
S11313100E946C06FF91EF91BF91AF919F918F91C5
S11313207F916F915F914F913F912F910F900FBEDD
S11313300F901F9018951F920F920FB60F921124C1
S11313402F933F934F935F936F937F938F939F93C9
S1131350AF93BF93EF93FF9320910801309109015C
S11313604091840050918500C901032E000CAA0B02
S1131370BB0BDC019927882760E070E0842B952B58
S1131380A62BB72B80930A0190930B01A0930C0119
S1131390B0930D01B09B1BC0409184005091850017
S11313A0C9010196092E000CAA0BBB0BDC0199277D
S11313B0882760E070E0842B952BA62BB72B8093B5
S11313C00A0190930B01A0930C01B0930D01E091DD
S11313D0B801F091B901309739F067E070E080917D
S11313E020019091210109950E946C06FF91EF91D3
S11313F0BF91AF919F918F917F916F915F914F9129
S11314003F912F910F900FBE0F901F9018951F9230
S11314100F920FB60F9211242F933F934F935F9324
S11314206F937F938F939F93AF93BF93EF93FF93A8
S11314302091080130910901409184005091850068
S1131440C901032E000CAA0BBB0BDC0199278827CA
S113145060E070E0842B952BA62BB72B80930A01B8
S113146090930B01A0930C01B0930D01B09B1BC092
S11314704091840050918500C9010196092E000C09
S1131480AA0BBB0BDC019927882760E070E0842B52
S1131490952BA62BB72B80930A0190930B01A09355
S11314A00C01B0930D01E091BA01F091BB013097AA
S11314B039F068E070E08091220190912301099550
S11314C00E946C06FF91EF91BF91AF919F918F9114
S11314D07F916F915F914F913F912F910F900FBE2C
S11314E00F901F9018951F920F920FB60F92112410
S11314F02F933F934F935F936F937F938F939F9318
S1131500AF93BF93EF93FF932091080130910901AA
S11315104091840050918500C901032E000CAA0B50
S1131520BB0BDC019927882760E070E0842B952BA6
S1131530A62BB72B80930A0190930B01A0930C0167
S1131540B0930D01B09B1BC0409184005091850065
S1131550C9010196092E000CAA0BBB0BDC019927CB
S1131560882760E070E0842B952BA62BB72B809303
S11315700A0190930B01A0930C01B0930D01E0912B
S1131580BC01F091BD01309739F069E070E08091C1
S113159024019091250109950E946C06FF91EF9119
S11315A0BF91AF919F918F917F916F915F914F9177
S11315B03F912F910F900FBE0F901F9018951F927F
S11315C00F920FB60F9211242F933F934F935F9373
S11315D06F937F938F939F93AF93BF93EF93FF93F7
S11315E020910801309109014091840050918500B7
S11315F0C901032E000CAA0BBB0BDC019927882719
S113160060E070E0842B952BA62BB72B80930A0106
S113161090930B01A0930C01B0930D01B09B1BC0E0
S11316204091840050918500C9010196092E000C57
S1131630AA0BBB0BDC019927882760E070E0842BA0
S1131640952BA62BB72B80930A0190930B01A093A3
S11316500C01B0930D01E091BE01F091BF013097F0
S113166039F06AE070E08091260190912701099594
S11316700E946C06FF91EF91BF91AF919F918F9162
S11316807F916F915F914F913F912F910F900FBE7A
S11316900F901F9018951F920F920FB60F9211245E
S11316A02F933F934F935F936F937F938F939F9366
S11316B0AF93BF93EF93FF932091080130910901F9
S11316C04091840050918500C901032E000CAA0B9F
S11316D0BB0BDC019927882760E070E0842B952BF5
S11316E0A62BB72B80930A0190930B01A0930C01B6
S11316F0B0930D01B09B1BC04091840050918500B4
S1131700C9010196092E000CAA0BBB0BDC01992719
S1131710882760E070E0842B952BA62BB72B809351
S11317200A0190930B01A0930C01B0930D01E09179
S1131730C001F091C101309739F06BE070E0809105
S113174028019091290109950E946C06FF91EF915F
S1131750BF91AF919F918F917F916F915F914F91C5
S11317603F912F910F900FBE0F901F9018951F92CD
S11317700F920FB60F9211242F933F934F935F93C1
S11317806F937F938F939F93AF93BF93EF93FF9345
S11317902091080130910901409184005091850005
S11317A0C901032E000CAA0BBB0BDC019927882767
S11317B060E070E0842B952BA62BB72B80930A0155
S11317C090930B01A0930C01B0930D01B09B1BC02F
S11317D04091840050918500C9010196092E000CA6
S11317E0AA0BBB0BDC019927882760E070E0842BEF
S11317F0952BA62BB72B80930A0190930B01A093F2
S11318000C01B0930D01E091C201F091C301309736
S113181039F06CE070E080912A0190912B010995D8
S11318200E946C06FF91EF91BF91AF919F918F91B0
S11318307F916F915F914F913F912F910F900FBEC8
S11318400F901F9018951F920F920FB60F921124AC
S11318502F933F934F935F936F937F938F939F93B4
S1131860AF93BF93EF93FF93209108013091090147
S11318704091840050918500C901032E000CAA0BED
S1131880BB0BDC019927882760E070E0842B952B43
S1131890A62BB72B80930A0190930B01A0930C0104
S11318A0B0930D01B09B1BC0409184005091850002
S11318B0C9010196092E000CAA0BBB0BDC01992768
S11318C0882760E070E0842B952BA62BB72B8093A0
S11318D00A0190930B01A0930C01B0930D01E091C8
S11318E0C401F091C501309739F06DE070E080914A
S11318F02C0190912D0109950E946C06FF91EF91A6
S1131900BF91AF919F918F917F916F915F914F9113
S11319103F912F910F900FBE0F901F9018951F921B
S11319200F920FB60F9211242F933F934F935F930F
S11319306F937F938F939F93AF93BF93EF93FF9393
S11319402091080130910901409184005091850053
S1131950C901032E000CAA0BBB0BDC0199278827B5
S113196060E070E0842B952BA62BB72B80930A01A3
S113197090930B01A0930C01B0930D01B09B1BC07D
S11319804091840050918500C9010196092E000CF4
S1131990AA0BBB0BDC019927882760E070E0842B3D
S11319A0952BA62BB72B80930A0190930B01A09340
S11319B00C01B0930D01E091C601F091C70130977D
S11319C039F06EE070E080912E0190912F0109951D
S11319D00E946C06FF91EF91BF91AF919F918F91FF
S11319E07F916F915F914F913F912F910F900FBE17
S11319F00F901F9018951F920F920FB60F921124FB
S1131A002F933F934F935F936F937F938F939F9302
S1131A10AF93BF93EF93FF93209108013091090195
S1131A204091840050918500C901032E000CAA0B3B
S1131A30BB0BDC019927882760E070E0842B952B91
S1131A40A62BB72B80930A0190930B01A0930C0152
S1131A50B0930D01B09B1BC0409184005091850050
S1131A60C9010196092E000CAA0BBB0BDC019927B6
S1131A70882760E070E0842B952BA62BB72B8093EE
S1131A800A0190930B01A0930C01B0930D01E09116
S1131A90C801F091C901309739F06FE070E080918E
S1131AA030019091310109950E946C06FF91EF91EC
S1131AB0BF91AF919F918F917F916F915F914F9162
S1131AC03F912F910F900FBE0F901F9018951F926A
S1131AD00F920FB60F9211242F933F934F935F935E
S1131AE06F937F938F939F93AF93BF93EF93FF93E2
S1131AF020910801309109014091840050918500A2
S1131B00C901032E000CAA0BBB0BDC019927882703
S1131B1060E070E0842B952BA62BB72B80930A01F1
S1131B2090930B01A0930C01B0930D01B09B1BC0CB
S1131B304091840050918500C9010196092E000C42
S1131B40AA0BBB0BDC019927882760E070E0842B8B
S1131B50952BA62BB72B80930A0190930B01A0938E
S1131B600C01B0930D01E091CA01F091CB013097C3
S1131B7039F060E170E08091320190913301099570
S1131B800E946C06FF91EF91BF91AF919F918F914D
S1131B907F916F915F914F913F912F910F900FBE65
S1131BA00F901F9018951F920F920FB60F92112449
S1131BB02F933F934F935F936F937F938F939F9351
S1131BC0AF93BF93EF93FF932091080130910901E4
S1131BD04091840050918500C901032E000CAA0B8A
S1131BE0BB0BDC019927882760E070E0842B952BE0
S1131BF0A62BB72B80930A0190930B01A0930C01A1
S1131C00B0930D01B09B1BC040918400509185009E
S1131C10C9010196092E000CAA0BBB0BDC01992704
S1131C20882760E070E0842B952BA62BB72B80933C
S1131C300A0190930B01A0930C01B0930D01E09164
S1131C40CC01F091CD01309739F061E170E08091E1
S1131C5034019091350109950E946C06FF91EF9132
S1131C60BF91AF919F918F917F916F915F914F91B0
S1131C703F912F910F900FBE0F901F901895EF92E8
S1131C80FF920F931F93CF93DF937B01EB01A88106
S1131C90B981109761F1FC01068117812085318596
S1131CA016964D915D916D917C91199704171507C6
S1131CB02607370714F41BC0DF01ED91FC9111973F
S1131CC0309749F04681578160857185041715075F
S1131CD0260737078CF7EC01F983E883109721F482
S1131CE0F7019183808307C08D939C9304C0EC011A
S1131CF0B983A883F5CFDF91CF911F910F91FF9006
S1131D00EF900895EF92FF920F931F93CF93DF9379
S1131D107B01EB01A881B981109761F1FC0102817B
S1131D2013812481358112964D915D916D917C9141
S1131D301597041715072607370714F41BC0DF018E
S1131D40ED91FC911197309749F042815381648160
S1131D50758104171507260737078CF7EC01F983FB
S1131D60E883109721F4F7019183808307C08D9352
S1131D709C9304C0EC01B983A883F5CFDF91CF9184
S1131D801F910F91FF90EF900895DC01ED91FC916C
S1131D901197309759F48FEF8093EC008093ED0006
S1131DA08093EE0081E083BF8895FDCF208131814F
S1131DB02D933C93CF0108951F920F920FB60F926B
S1131DC011242F933F934F935F936F937F938F933C
S1131DD09F93EF93FF9380910801909109010196DD
S1131DE09093090180930801E0910E01F0910F0195
S1131DF0309701F142815381648175818617970779
S1131E00C9F4CA012091840030918500421B530B10
S1131E104130510529F48091840090918500019608
S1131E209093890080938800EFE6F0E080818260DF
S1131E30808305C0EFE6F0E080818D7F8083FF9191
S1131E40EF919F918F917F916F915F914F913F910E
S1131E502F910F900FBE0F901F9018951F920F9205
S1131E600FB60F921124CF92DF92EF92FF922F932D
S1131E703F934F935F936F937F938F939F93AF930E
S1131E80BF93EF93FF93C0900801D0900901209174
S1131E90840030918500B0990FC00D2C000CEE0821
S1131EA0FF08D601992788276901E12CF12CC82A5B
S1131EB0D92AEA2AFB2A15C0209184003091850092
S1131EC08FEFC81AD80A0D2C000CEE08FF08D601B3
S1131ED0992788276901E12CF12CC82AD92AEA2AF2
S1131EE0FB2AE0910E01F0910F01309709F442C0F2
S1131EF082819381A481B5818C199D09AE09BF09A2
S1131F00181619061A061B06ECF18EE091E00E94E1
S1131F10C50E60E171E00E943F0EE0910E01F09168
S1131F200F01309739F182819381A481B5818C1995
S1131F309D09AE09BF09181619061A061B062CF7C7
S1131F4021C09C014091840050918500841B950B15
S1131F50019731F420918400309185002F5F3F4F29
S1131F603093890020938800EFE6F0E0808182605E
S1131F70808305C0EFE6F0E080818D7F80830E943E
S1131F806C060CC082819381A481B58120910801E3
S1131F90309109012A173B0769F7D3CFFF91EF91DD
S1131FA0BF91AF919F918F917F916F915F914F916D
S1131FB03F912F91FF90EF90DF90CF900F900FBE45
S1131FC00F901F9018953F924F925F926F927F925D
S1131FD08F929F92AF92BF92CF92DF92EF92FF9235
S1131FE00F931F93CF93DF932B013C0149015A01B7
S1131FF08FB78078382EF89486E091E00E94C50E61
S1132000EC011B870A87FD86EC86DF86CE863320AB
S113201061F0E0910001F09101010280F381E02D73
S113202082819381A481B58108C080910A01909135
S11320300B01A0910C01B0910D01480E591E6A1EAE
S11320407B1E4A825B826C827D82181419041A04F6
S11320501B0444F00F2E88248A94982CA82CFFE7A4
S1132060BF2EF02D840C951CA61CB71C8E829F825B
S1132070A886B98680910801909109014091840055
S113208050918500B0990EC0092E000CAA0BBB0B11
S1132090DC019927882760E070E0842B952BA62B20
S11320A0B72B13C020918400309185000196092E2E
S11320B0000CAA0BBB0BDC0199278827A90160E05F
S11320C070E0842B952BA62BB72B481A590A6A0A61
S11320D07B0A1414150416041704ACF56EE071E0C1
S11320E0CE010E94820EE0910E01F0910F01309713
S11320F021F182819381A481B581209108013091DD
S113210009012A173B07C9F49C01409184005091AE
S11321108500841B950B019731F420918400309144
S113212085002F5F3F4F3093890020938800EFE6AE
S1132130F0E080818260808341C0EFE6F0E080813E
S11321408D7F80833BC060E171E0CE010E943F0E31
S11321503320B9F18091040190910501009781F138
S1132160E0910201F09103012091100130911101DD
S113217002811381D90116964D915D916D917C91E7
S11321801997D80116960D911D912D913C9119978F
S1132190401B510B620B730B9AF4DC012D913C91A3
S11321A011973093050120930401ED93FC939093D0
S11321B00301809302010E944C0602C0332009F0FF
S11321C07894CE01DF91CF911F910F91FF90EF9002
S11321D0DF90CF90BF90AF909F908F907F906F9043
S11321E05F904F903F900895CF92DF92EF92FF92CD
S11321F00F931F93CF93DF93EC017B016A011FB709
S11322001078F894A881B981109761F11496ED9132
S1132210FC911597309741F0A081B1811496ED910E
S1132220FC9115973097C1F720910001309101017D
S11322302A173B0721F0112309F43DC007C01123DD
S113224009F43CC078948FEF9FEF52C08A819B8140
S11322500097D1F1FC011582148236C0789480E095
S113226090E046C080910001909101019983888398
S1132270112329F08A819B81019709F07894B60192
S1132280CE01F7010995F82E092F8FB7F89419821A
S113229018828A819B818230910538F01B821A82D0
S11322A0FC01158214820E944C06112351F078948B
S11322B08F2D902F1DC08FEF9FEF1AC08FEF9FEFD0
S11322C017C08F2D902F14C03B832A83F901D58327
S11322D0C483CD010E944C06E0910001F0910101FC
S11322E082819381892B09F4B9CFF983E883C2CF22
S11322F0DF91CF911F910F91FF90EF90DF90CF90DE
S11323000895009100011091010180E191E00E9483
S1132310C50EEC01D80113969C938E931297789472
S11323204E855F856C857D858A859B850E94F4102A
S11323308FB7F8948091060190910701998388835F
S1132340D0930701C0930601E0910201F0910301CB
S113235000811181E8012A813B81A0911001B09193
S113236011011097C1F02115310559F216968D917E
S11323709D910D90BC91A02DE9014E815F816885EE
S11323807985841B950BA60BB70B181619061A062C
S11323901B060CF0B6CF1093030100930201809149
S11323A004019091050191838083F0930501E093EA
S11323B00401A0910201B09103011496ED91FC91E6
S11323C01597309741F0A081B1811496ED91FC915D
S11323D015973097C1F7CD010E944C0692CF423138
S11323E0B8F42FB7F89450E0440F551FFA01EE5E8D
S11323F0FE4F91838083FA01E655FE4F718360831B
S113240041E050E0FC015383428322230CF478948E
S113241008958C017B016A018FB7F8940E94E1054D
S11324207894E114F10441F020E030E0A90160E087
S113243070E0CB010E94E30F8FB7F8940E946C0602
S1132440789481E083BF8895FDCFFC01658308956E
S1132450FC016483089597FB072E16F4009407D0BB
S113246077FD09D00E94451207FC05D03EF49095F3
S113247081959F4F0895709561957F4F0895EE0F54
S1132480FF1F0590F491E02D0994AA1BBB1B51E199
S113249007C0AA1FBB1FA617B70710F0A61BB70BD0
S11324A0881F991F5A95A9F780959095BC01CD0175
S11324B00895DC012D923D924D925D926D927D9234
S11324C08D929D92AD92BD92CD92DD92ED92FD9250
S11324D00D931D93CD93DD93FF91EF918DB78D9364
S11324E08EB78D938FB78D93ED93FD93882799279E
S11324F00994DC01CB0181309105811D2D903D9023
S11325004D905D906D907D908D909D90AD90BD901F
S1132510CD90DD90ED90FD900D911D91CD91DD91CB
S1132520ED91FD910D90F894FEBF0FBEEDBFED91BE
S10B2530FD910994F894FFCF1A
S10B2538CE01CE013601EB01D6
S9030000FC
